:10000000A00038D5000440F2E10D0054E00D005886
:100010000120A052010400B98100A0528C0080D2BE
:100020004E0080D28D0080D2AD0500D1EABF83D2D0
:100030008B1081D26B3D1ED1530000941F2003D53D
:100040001F2003D58A0C80D28B1081D26B110ED168
:100050004D000094EABF83D28B1081D26BD520D1A2
:10006000490000944A2783D28B1081D26BC51FD1DF
:10007000450000941F2003D51F2003D51F2003D562
:100080001F2003D5EABF83D28B1081D26B3520D1DC
:100090003D0000948C0100B44A3584D28B1081D28B
:1000A0006BE520D138000094CAB884D28B1081D27D
:1000B0006BE91DD134000094EC0200B51F2003D57C
:1000C0001F2003D54A3584D28B1081D26BBD20D13D
:1000D0002D000094CAB884D28B1081D26B9520D1A8
:1000E000290000948C0900914A3584D28B1081D26A
:1000F0006BBD20D1240000941F2003D51F2003D501
:100100001F2003D5CAB884D28B1081D26B9520D121
:100110001D0000944A0185D28B1081D26B391ED10B
:10012000190000948C0500D10DF8FFB54A2783D241
:100130008B1081D26BDD15D1130000941F2003D5E5
:100140001F2003D56ACF82D28B1081D26B5114D17C
:100150002C0080D2CE0500D10B000094CE0200B45A
:10016000B1FFFF171F2003D51F2003D51F2003D584
:100170001F2003D51F2003D51F2003D51F2003D523
:100180001F2003D5E4030BAA011C00B9E3030AAA4C
:10019000630400D1E3FFFFB5012800B9E3030AAA15
:1001A000630400D1E3FFFFB5840400D1E4FEFFB592
:1001B000C0035FD68C0080D24E0080D29AFFFF171A
:1001C0001F2003D5000000140000203F00000000A5
:00000001FF
