:10000000A00038D5000440F2E1050054E005005896
:100010000120A052010400B98100A0521F2003D585
:10002000090180D2CAB884D28B1081D26BA10FD1C2
:10003000190000944A3584D28B1081D26B810CD187
:1000400015000094EABF83D28B1081D26B550BD17F
:1000500011000094EA8983D28B1081D26BD107D131
:100060000D0000944A2783D28B1081D20A0000949D
:100070006ACF82D28B1081D2070000941F2003D553
:100080001F2003D5CA8082D28B1081D20200009437
:10009000E4FFFF17E4030BAA011C00B9E3030AAA5B
:1000A000630400D1E3FFFFB5012800B9E3030AAA06
:1000B000630400D1E3FFFFB5840400D1E4FEFFB583
:1000C000C0035FD6000000140000203F00000000C5
:00000001FF
